{
    "_format": "hh-sol-artifact-1",
    "contractName": "BroPepe",
    "sourceName": "contracts/BroPepe.sol",
    "abi": [
        {
            "inputs": [],
            "stateMutability": "payable",
            "type": "constructor"
        },
        {
            "anonymous": false,
            "inputs": [
                {
                    "indexed": true,
                    "internalType": "address",
                    "name": "owner",
                    "type": "address"
                },
                {
                    "indexed": true,
                    "internalType": "address",
                    "name": "approved",
                    "type": "address"
                },
                {
                    "indexed": true,
                    "internalType": "uint256",
                    "name": "tokenId",
                    "type": "uint256"
                }
            ],
            "name": "Approval",
            "type": "event"
        },
        {
            "anonymous": false,
            "inputs": [
                {
                    "indexed": true,
                    "internalType": "address",
                    "name": "owner",
                    "type": "address"
                },
                {
                    "indexed": true,
                    "internalType": "address",
                    "name": "operator",
                    "type": "address"
                },
                {
                    "indexed": false,
                    "internalType": "bool",
                    "name": "approved",
                    "type": "bool"
                }
            ],
            "name": "ApprovalForAll",
            "type": "event"
        },
        {
            "anonymous": false,
            "inputs": [
                {
                    "indexed": true,
                    "internalType": "address",
                    "name": "previousOwner",
                    "type": "address"
                },
                {
                    "indexed": true,
                    "internalType": "address",
                    "name": "newOwner",
                    "type": "address"
                }
            ],
            "name": "OwnershipTransferred",
            "type": "event"
        },
        {
            "anonymous": false,
            "inputs": [
                {
                    "indexed": true,
                    "internalType": "address",
                    "name": "from",
                    "type": "address"
                },
                {
                    "indexed": true,
                    "internalType": "address",
                    "name": "to",
                    "type": "address"
                },
                {
                    "indexed": true,
                    "internalType": "uint256",
                    "name": "tokenId",
                    "type": "uint256"
                }
            ],
            "name": "Transfer",
            "type": "event"
        },
        {
            "inputs": [
                {
                    "internalType": "address",
                    "name": "to",
                    "type": "address"
                },
                {
                    "internalType": "uint256",
                    "name": "tokenId",
                    "type": "uint256"
                }
            ],
            "name": "approve",
            "outputs": [],
            "stateMutability": "nonpayable",
            "type": "function"
        },
        {
            "inputs": [
                {
                    "internalType": "address",
                    "name": "owner",
                    "type": "address"
                }
            ],
            "name": "balanceOf",
            "outputs": [
                {
                    "internalType": "uint256",
                    "name": "",
                    "type": "uint256"
                }
            ],
            "stateMutability": "view",
            "type": "function"
        },
        {
            "inputs": [
                {
                    "internalType": "uint256",
                    "name": "tokenId",
                    "type": "uint256"
                }
            ],
            "name": "getApproved",
            "outputs": [
                {
                    "internalType": "address",
                    "name": "",
                    "type": "address"
                }
            ],
            "stateMutability": "view",
            "type": "function"
        },
        {
            "inputs": [],
            "name": "getTotalSupply",
            "outputs": [
                {
                    "internalType": "uint256",
                    "name": "",
                    "type": "uint256"
                }
            ],
            "stateMutability": "view",
            "type": "function"
        },
        {
            "inputs": [
                {
                    "internalType": "address",
                    "name": "owner",
                    "type": "address"
                },
                {
                    "internalType": "address",
                    "name": "operator",
                    "type": "address"
                }
            ],
            "name": "isApprovedForAll",
            "outputs": [
                {
                    "internalType": "bool",
                    "name": "",
                    "type": "bool"
                }
            ],
            "stateMutability": "view",
            "type": "function"
        },
        {
            "inputs": [],
            "name": "isMintEnabled",
            "outputs": [
                {
                    "internalType": "bool",
                    "name": "",
                    "type": "bool"
                }
            ],
            "stateMutability": "view",
            "type": "function"
        },
        {
            "inputs": [],
            "name": "maxPerWallet",
            "outputs": [
                {
                    "internalType": "uint256",
                    "name": "",
                    "type": "uint256"
                }
            ],
            "stateMutability": "view",
            "type": "function"
        },
        {
            "inputs": [],
            "name": "maxSupply",
            "outputs": [
                {
                    "internalType": "uint256",
                    "name": "",
                    "type": "uint256"
                }
            ],
            "stateMutability": "view",
            "type": "function"
        },
        {
            "inputs": [
                {
                    "internalType": "uint256",
                    "name": "_quantity",
                    "type": "uint256"
                }
            ],
            "name": "mint",
            "outputs": [],
            "stateMutability": "payable",
            "type": "function"
        },
        {
            "inputs": [],
            "name": "mintPrice",
            "outputs": [
                {
                    "internalType": "uint256",
                    "name": "",
                    "type": "uint256"
                }
            ],
            "stateMutability": "view",
            "type": "function"
        },
        {
            "inputs": [],
            "name": "name",
            "outputs": [
                {
                    "internalType": "string",
                    "name": "",
                    "type": "string"
                }
            ],
            "stateMutability": "view",
            "type": "function"
        },
        {
            "inputs": [],
            "name": "owner",
            "outputs": [
                {
                    "internalType": "address",
                    "name": "",
                    "type": "address"
                }
            ],
            "stateMutability": "view",
            "type": "function"
        },
        {
            "inputs": [
                {
                    "internalType": "uint256",
                    "name": "tokenId",
                    "type": "uint256"
                }
            ],
            "name": "ownerOf",
            "outputs": [
                {
                    "internalType": "address",
                    "name": "",
                    "type": "address"
                }
            ],
            "stateMutability": "view",
            "type": "function"
        },
        {
            "inputs": [],
            "name": "renounceOwnership",
            "outputs": [],
            "stateMutability": "nonpayable",
            "type": "function"
        },
        {
            "inputs": [
                {
                    "internalType": "address",
                    "name": "from",
                    "type": "address"
                },
                {
                    "internalType": "address",
                    "name": "to",
                    "type": "address"
                },
                {
                    "internalType": "uint256",
                    "name": "tokenId",
                    "type": "uint256"
                }
            ],
            "name": "safeTransferFrom",
            "outputs": [],
            "stateMutability": "nonpayable",
            "type": "function"
        },
        {
            "inputs": [
                {
                    "internalType": "address",
                    "name": "from",
                    "type": "address"
                },
                {
                    "internalType": "address",
                    "name": "to",
                    "type": "address"
                },
                {
                    "internalType": "uint256",
                    "name": "tokenId",
                    "type": "uint256"
                },
                {
                    "internalType": "bytes",
                    "name": "_data",
                    "type": "bytes"
                }
            ],
            "name": "safeTransferFrom",
            "outputs": [],
            "stateMutability": "nonpayable",
            "type": "function"
        },
        {
            "inputs": [
                {
                    "internalType": "address",
                    "name": "operator",
                    "type": "address"
                },
                {
                    "internalType": "bool",
                    "name": "approved",
                    "type": "bool"
                }
            ],
            "name": "setApprovalForAll",
            "outputs": [],
            "stateMutability": "nonpayable",
            "type": "function"
        },
        {
            "inputs": [
                {
                    "internalType": "string",
                    "name": "_baseTokenURI",
                    "type": "string"
                }
            ],
            "name": "setBaseTokenUri",
            "outputs": [],
            "stateMutability": "nonpayable",
            "type": "function"
        },
        {
            "inputs": [
                {
                    "internalType": "bool",
                    "name": "_isMintEnabled",
                    "type": "bool"
                }
            ],
            "name": "setIsPublicMintEnabled",
            "outputs": [],
            "stateMutability": "nonpayable",
            "type": "function"
        },
        {
            "inputs": [],
            "name": "setWlAddress",
            "outputs": [],
            "stateMutability": "nonpayable",
            "type": "function"
        },
        {
            "inputs": [
                {
                    "internalType": "bytes4",
                    "name": "interfaceId",
                    "type": "bytes4"
                }
            ],
            "name": "supportsInterface",
            "outputs": [
                {
                    "internalType": "bool",
                    "name": "",
                    "type": "bool"
                }
            ],
            "stateMutability": "view",
            "type": "function"
        },
        {
            "inputs": [],
            "name": "symbol",
            "outputs": [
                {
                    "internalType": "string",
                    "name": "",
                    "type": "string"
                }
            ],
            "stateMutability": "view",
            "type": "function"
        },
        {
            "inputs": [
                {
                    "internalType": "uint256",
                    "name": "_tokenID",
                    "type": "uint256"
                }
            ],
            "name": "tokenURI",
            "outputs": [
                {
                    "internalType": "string",
                    "name": "",
                    "type": "string"
                }
            ],
            "stateMutability": "view",
            "type": "function"
        },
        {
            "inputs": [],
            "name": "totalSupply",
            "outputs": [
                {
                    "internalType": "uint256",
                    "name": "",
                    "type": "uint256"
                }
            ],
            "stateMutability": "view",
            "type": "function"
        },
        {
            "inputs": [
                {
                    "internalType": "address",
                    "name": "from",
                    "type": "address"
                },
                {
                    "internalType": "address",
                    "name": "to",
                    "type": "address"
                },
                {
                    "internalType": "uint256",
                    "name": "tokenId",
                    "type": "uint256"
                }
            ],
            "name": "transferFrom",
            "outputs": [],
            "stateMutability": "nonpayable",
            "type": "function"
        },
        {
            "inputs": [
                {
                    "internalType": "address",
                    "name": "newOwner",
                    "type": "address"
                }
            ],
            "name": "transferOwnership",
            "outputs": [],
            "stateMutability": "nonpayable",
            "type": "function"
        },
        {
            "inputs": [
                {
                    "internalType": "address",
                    "name": "",
                    "type": "address"
                }
            ],
            "name": "walletMints",
            "outputs": [
                {
                    "internalType": "uint256",
                    "name": "",
                    "type": "uint256"
                }
            ],
            "stateMutability": "view",
            "type": "function"
        },
        {
            "inputs": [],
            "name": "wdAddress",
            "outputs": [
                {
                    "internalType": "address payable",
                    "name": "",
                    "type": "address"
                }
            ],
            "stateMutability": "view",
            "type": "function"
        },
        {
            "inputs": [
                {
                    "internalType": "address",
                    "name": "",
                    "type": "address"
                }
            ],
            "name": "whiteWallets",
            "outputs": [
                {
                    "internalType": "bool",
                    "name": "",
                    "type": "bool"
                }
            ],
            "stateMutability": "view",
            "type": "function"
        },
        {
            "inputs": [],
            "name": "withdraw",
            "outputs": [],
            "stateMutability": "nonpayable",
            "type": "function"
        }
    ],
    "bytecode": "0x60806040526040518060400160405280600781526020017f42726f50657065000000000000000000000000000000000000000000000000008152506040518060400160405280600281526020017f42500000000000000000000000000000000000000000000000000000000000008152508160009080519060200190620000889291906200022e565b508060019080519060200190620000a19291906200022e565b505050620000c4620000b86200016060201b60201c565b6200016860201b60201c565b66470de4df820000600781905550600060088190555060646009819055506001600a819055506000600b60006101000a81548160ff02191690831515021790555073dc46a951f3296339cafe6f69b7512de936186c94600d60006101000a81548173ffffffffffffffffffffffffffffffffffffffff021916908373ffffffffffffffffffffffffffffffffffffffff16021790555062000343565b600033905090565b6000600660009054906101000a900473ffffffffffffffffffffffffffffffffffffffff16905081600660006101000a81548173ffffffffffffffffffffffffffffffffffffffff021916908373ffffffffffffffffffffffffffffffffffffffff1602179055508173ffffffffffffffffffffffffffffffffffffffff168173ffffffffffffffffffffffffffffffffffffffff167f8be0079c531659141344cd1fd0a4f28419497f9722a3daafe3b4186f6b6457e060405160405180910390a35050565b8280546200023c90620002de565b90600052602060002090601f016020900481019282620002605760008555620002ac565b82601f106200027b57805160ff1916838001178555620002ac565b82800160010185558215620002ac579182015b82811115620002ab5782518255916020019190600101906200028e565b5b509050620002bb9190620002bf565b5090565b5b80821115620002da576000816000905550600101620002c0565b5090565b60006002820490506001821680620002f757607f821691505b602082108114156200030e576200030d62000314565b5b50919050565b7f4e487b7100000000000000000000000000000000000000000000000000000000600052602260045260246000fd5b613be680620003536000396000f3fe6080604052600436106101cd5760003560e01c806370a08231116100f7578063a22cb46511610095578063d5abeb0111610064578063d5abeb0114610643578063e985e9c51461066e578063f0293fd3146106ab578063f2fde38b146106e8576101cd565b8063a22cb46514610589578063b88d4fde146105b2578063c4e41b22146105db578063c87b56dd14610606576101cd565b806395652cfa116100d157806395652cfa146104dc57806395d89b41146105055780639adccda114610530578063a0712d681461056d576101cd565b806370a082311461045d578063715018a61461049a5780638da5cb5b146104b1576101cd565b806323b872dd1161016f57806342842e0e1161013e57806342842e0e146103a1578063453c2310146103ca5780636352211e146103f55780636817c76c14610432576101cd565b806323b872dd1461030b5780632f23efa314610334578063346de50a1461035f5780633ccfd60b1461038a576101cd565b8063095ea7b3116101ab578063095ea7b31461027757806317416c20146102a057806318160ddd146102b75780632373ac22146102e2576101cd565b806301ffc9a7146101d257806306fdde031461020f578063081812fc1461023a575b600080fd5b3480156101de57600080fd5b506101f960048036038101906101f49190612830565b610711565b6040516102069190612e5c565b60405180910390f35b34801561021b57600080fd5b506102246107f3565b6040516102319190612e77565b60405180910390f35b34801561024657600080fd5b50610261600480360381019061025c91906128c7565b610885565b60405161026e9190612dda565b60405180910390f35b34801561028357600080fd5b5061029e600480360381019061029991906127cb565b61090a565b005b3480156102ac57600080fd5b506102b5610a22565b005b3480156102c357600080fd5b506102cc610c50565b6040516102d99190613159565b60405180910390f35b3480156102ee57600080fd5b5061030960048036038101906103049190612807565b610c56565b005b34801561031757600080fd5b50610332600480360381019061032d91906126c5565b610cef565b005b34801561034057600080fd5b50610349610d4f565b6040516103569190612df5565b60405180910390f35b34801561036b57600080fd5b50610374610d75565b6040516103819190612e5c565b60405180910390f35b34801561039657600080fd5b5061039f610d88565b005b3480156103ad57600080fd5b506103c860048036038101906103c391906126c5565b610ed5565b005b3480156103d657600080fd5b506103df610ef5565b6040516103ec9190613159565b60405180910390f35b34801561040157600080fd5b5061041c600480360381019061041791906128c7565b610efb565b6040516104299190612dda565b60405180910390f35b34801561043e57600080fd5b50610447610fad565b6040516104549190613159565b60405180910390f35b34801561046957600080fd5b50610484600480360381019061047f9190612660565b610fb3565b6040516104919190613159565b60405180910390f35b3480156104a657600080fd5b506104af61106b565b005b3480156104bd57600080fd5b506104c66110f3565b6040516104d39190612dda565b60405180910390f35b3480156104e857600080fd5b5061050360048036038101906104fe9190612882565b61111d565b005b34801561051157600080fd5b5061051a6111af565b6040516105279190612e77565b60405180910390f35b34801561053c57600080fd5b5061055760048036038101906105529190612660565b611241565b6040516105649190612e5c565b60405180910390f35b610587600480360381019061058291906128c7565b611261565b005b34801561059557600080fd5b506105b060048036038101906105ab919061278f565b6114cb565b005b3480156105be57600080fd5b506105d960048036038101906105d49190612714565b6114e1565b005b3480156105e757600080fd5b506105f0611543565b6040516105fd9190613159565b60405180910390f35b34801561061257600080fd5b5061062d600480360381019061062891906128c7565b61154d565b60405161063a9190612e77565b60405180910390f35b34801561064f57600080fd5b506106586115c9565b6040516106659190613159565b60405180910390f35b34801561067a57600080fd5b5061069560048036038101906106909190612689565b6115cf565b6040516106a29190612e5c565b60405180910390f35b3480156106b757600080fd5b506106d260048036038101906106cd9190612660565b611663565b6040516106df9190613159565b60405180910390f35b3480156106f457600080fd5b5061070f600480360381019061070a9190612660565b61167b565b005b60007f80ac58cd000000000000000000000000000000000000000000000000000000007bffffffffffffffffffffffffffffffffffffffffffffffffffffffff1916827bffffffffffffffffffffffffffffffffffffffffffffffffffffffff191614806107dc57507f5b5e139f000000000000000000000000000000000000000000000000000000007bffffffffffffffffffffffffffffffffffffffffffffffffffffffff1916827bffffffffffffffffffffffffffffffffffffffffffffffffffffffff1916145b806107ec57506107eb82611773565b5b9050919050565b6060600080546108029061340a565b80601f016020809104026020016040519081016040528092919081815260200182805461082e9061340a565b801561087b5780601f106108505761010080835404028352916020019161087b565b820191906000526020600020905b81548152906001019060200180831161085e57829003601f168201915b5050505050905090565b6000610890826117dd565b6108cf576040517f08c379a00000000000000000000000000000000000000000000000000000000081526004016108c690613079565b60405180910390fd5b6004600083815260200190815260200160002060009054906101000a900473ffffffffffffffffffffffffffffffffffffffff169050919050565b600061091582610efb565b90508073ffffffffffffffffffffffffffffffffffffffff168373ffffffffffffffffffffffffffffffffffffffff161415610986576040517f08c379a000000000000000000000000000000000000000000000000000000000815260040161097d906130f9565b60405180910390fd5b8073ffffffffffffffffffffffffffffffffffffffff166109a5611849565b73ffffffffffffffffffffffffffffffffffffffff1614806109d457506109d3816109ce611849565b6115cf565b5b610a13576040517f08c379a0000000000000000000000000000000000000000000000000000000008152600401610a0a90612fd9565b60405180910390fd5b610a1d8383611851565b505050565b610a2a611849565b73ffffffffffffffffffffffffffffffffffffffff16610a486110f3565b73ffffffffffffffffffffffffffffffffffffffff1614610a9e576040517f08c379a0000000000000000000000000000000000000000000000000000000008152600401610a9590613099565b60405180910390fd5b6001600f60007390f79bf6eb2c4f870365e785982e1f101e93b90673ffffffffffffffffffffffffffffffffffffffff1673ffffffffffffffffffffffffffffffffffffffff16815260200190815260200160002060006101000a81548160ff0219169083151502179055506001600f600073f39fd6e51aad88f6f4ce6ab8827279cfffb9226673ffffffffffffffffffffffffffffffffffffffff1673ffffffffffffffffffffffffffffffffffffffff16815260200190815260200160002060006101000a81548160ff0219169083151502179055506001600f60007370997970c51812dc3a010c7d01b50e0d17dc79c873ffffffffffffffffffffffffffffffffffffffff1673ffffffffffffffffffffffffffffffffffffffff16815260200190815260200160002060006101000a81548160ff0219169083151502179055506001600f6000733c44cdddb6a900fa2b585dd299e03d12fa4293bc73ffffffffffffffffffffffffffffffffffffffff1673ffffffffffffffffffffffffffffffffffffffff16815260200190815260200160002060006101000a81548160ff021916908315150217905550565b60085481565b610c5e611849565b73ffffffffffffffffffffffffffffffffffffffff16610c7c6110f3565b73ffffffffffffffffffffffffffffffffffffffff1614610cd2576040517f08c379a0000000000000000000000000000000000000000000000000000000008152600401610cc990613099565b60405180910390fd5b80600b60006101000a81548160ff02191690831515021790555050565b610d00610cfa611849565b8261190a565b610d3f576040517f08c379a0000000000000000000000000000000000000000000000000000000008152600401610d3690613119565b60405180910390fd5b610d4a8383836119e8565b505050565b600d60009054906101000a900473ffffffffffffffffffffffffffffffffffffffff1681565b600b60009054906101000a900460ff1681565b610d90611849565b73ffffffffffffffffffffffffffffffffffffffff16610dae6110f3565b73ffffffffffffffffffffffffffffffffffffffff1614610e04576040517f08c379a0000000000000000000000000000000000000000000000000000000008152600401610dfb90613099565b60405180910390fd5b6000600d60009054906101000a900473ffffffffffffffffffffffffffffffffffffffff1673ffffffffffffffffffffffffffffffffffffffff1647604051610e4c90612dc5565b60006040518083038185875af1925050503d8060008114610e89576040519150601f19603f3d011682016040523d82523d6000602084013e610e8e565b606091505b5050905080610ed2576040517f08c379a0000000000000000000000000000000000000000000000000000000008152600401610ec9906130d9565b60405180910390fd5b50565b610ef0838383604051806020016040528060008152506114e1565b505050565b600a5481565b6000806002600084815260200190815260200160002060009054906101000a900473ffffffffffffffffffffffffffffffffffffffff169050600073ffffffffffffffffffffffffffffffffffffffff168173ffffffffffffffffffffffffffffffffffffffff161415610fa4576040517f08c379a0000000000000000000000000000000000000000000000000000000008152600401610f9b90613019565b60405180910390fd5b80915050919050565b60075481565b60008073ffffffffffffffffffffffffffffffffffffffff168273ffffffffffffffffffffffffffffffffffffffff161415611024576040517f08c379a000000000000000000000000000000000000000000000000000000000815260040161101b90612ff9565b60405180910390fd5b600360008373ffffffffffffffffffffffffffffffffffffffff1673ffffffffffffffffffffffffffffffffffffffff168152602001908152602001600020549050919050565b611073611849565b73ffffffffffffffffffffffffffffffffffffffff166110916110f3565b73ffffffffffffffffffffffffffffffffffffffff16146110e7576040517f08c379a00000000000000000000000000000000000000000000000000000000081526004016110de90613099565b60405180910390fd5b6110f16000611c4f565b565b6000600660009054906101000a900473ffffffffffffffffffffffffffffffffffffffff16905090565b611125611849565b73ffffffffffffffffffffffffffffffffffffffff166111436110f3565b73ffffffffffffffffffffffffffffffffffffffff1614611199576040517f08c379a000000000000000000000000000000000000000000000000000000000815260040161119090613099565b60405180910390fd5b8181600c91906111aa9291906124a2565b505050565b6060600180546111be9061340a565b80601f01602080910402602001604051908101604052809291908181526020018280546111ea9061340a565b80156112375780601f1061120c57610100808354040283529160200191611237565b820191906000526020600020905b81548152906001019060200180831161121a57829003601f168201915b5050505050905090565b600f6020528060005260406000206000915054906101000a900460ff1681565b60011515600f60003373ffffffffffffffffffffffffffffffffffffffff1673ffffffffffffffffffffffffffffffffffffffff16815260200190815260200160002060009054906101000a900460ff161515146112f4576040517f08c379a00000000000000000000000000000000000000000000000000000000081526004016112eb90612f59565b60405180910390fd5b8060075461130291906132b4565b341015611344576040517f08c379a000000000000000000000000000000000000000000000000000000000815260040161133b906130b9565b60405180910390fd5b60095481600854611355919061322d565b10611395576040517f08c379a000000000000000000000000000000000000000000000000000000000815260040161138c90613139565b60405180910390fd5b600b60009054906101000a900460ff166113e4576040517f08c379a00000000000000000000000000000000000000000000000000000000081526004016113db90613059565b60405180910390fd5b600a5481600e60003373ffffffffffffffffffffffffffffffffffffffff1673ffffffffffffffffffffffffffffffffffffffff16815260200190815260200160002054611432919061322d565b1115611473576040517f08c379a000000000000000000000000000000000000000000000000000000000815260040161146a90612eb9565b60405180910390fd5b60005b818110156114c7576000600160085461148f919061322d565b9050600860008154809291906114a49061346d565b91905055506114b33382611d15565b5080806114bf9061346d565b915050611476565b5050565b6114dd6114d6611849565b8383611d33565b5050565b6114f26114ec611849565b8361190a565b611531576040517f08c379a000000000000000000000000000000000000000000000000000000000815260040161152890613119565b60405180910390fd5b61153d84848484611ea0565b50505050565b6000600854905090565b6060611558826117dd565b611597576040517f08c379a000000000000000000000000000000000000000000000000000000000815260040161158e90612f19565b60405180910390fd5b600c6115a283611efc565b6040516020016115b3929190612d96565b6040516020818303038152906040529050919050565b60095481565b6000600560008473ffffffffffffffffffffffffffffffffffffffff1673ffffffffffffffffffffffffffffffffffffffff16815260200190815260200160002060008373ffffffffffffffffffffffffffffffffffffffff1673ffffffffffffffffffffffffffffffffffffffff16815260200190815260200160002060009054906101000a900460ff16905092915050565b600e6020528060005260406000206000915090505481565b611683611849565b73ffffffffffffffffffffffffffffffffffffffff166116a16110f3565b73ffffffffffffffffffffffffffffffffffffffff16146116f7576040517f08c379a00000000000000000000000000000000000000000000000000000000081526004016116ee90613099565b60405180910390fd5b600073ffffffffffffffffffffffffffffffffffffffff168173ffffffffffffffffffffffffffffffffffffffff161415611767576040517f08c379a000000000000000000000000000000000000000000000000000000000815260040161175e90612ed9565b60405180910390fd5b61177081611c4f565b50565b60007f01ffc9a7000000000000000000000000000000000000000000000000000000007bffffffffffffffffffffffffffffffffffffffffffffffffffffffff1916827bffffffffffffffffffffffffffffffffffffffffffffffffffffffff1916149050919050565b60008073ffffffffffffffffffffffffffffffffffffffff166002600084815260200190815260200160002060009054906101000a900473ffffffffffffffffffffffffffffffffffffffff1673ffffffffffffffffffffffffffffffffffffffff1614159050919050565b600033905090565b816004600083815260200190815260200160002060006101000a81548173ffffffffffffffffffffffffffffffffffffffff021916908373ffffffffffffffffffffffffffffffffffffffff160217905550808273ffffffffffffffffffffffffffffffffffffffff166118c483610efb565b73ffffffffffffffffffffffffffffffffffffffff167f8c5be1e5ebec7d5bd14f71427d1e84f3dd0314c0f7b2291e5b200ac8c7c3b92560405160405180910390a45050565b6000611915826117dd565b611954576040517f08c379a000000000000000000000000000000000000000000000000000000000815260040161194b90612fb9565b60405180910390fd5b600061195f83610efb565b90508073ffffffffffffffffffffffffffffffffffffffff168473ffffffffffffffffffffffffffffffffffffffff1614806119a157506119a081856115cf565b5b806119df57508373ffffffffffffffffffffffffffffffffffffffff166119c784610885565b73ffffffffffffffffffffffffffffffffffffffff16145b91505092915050565b8273ffffffffffffffffffffffffffffffffffffffff16611a0882610efb565b73ffffffffffffffffffffffffffffffffffffffff1614611a5e576040517f08c379a0000000000000000000000000000000000000000000000000000000008152600401611a5590612ef9565b60405180910390fd5b600073ffffffffffffffffffffffffffffffffffffffff168273ffffffffffffffffffffffffffffffffffffffff161415611ace576040517f08c379a0000000000000000000000000000000000000000000000000000000008152600401611ac590612f79565b60405180910390fd5b611ad98383836120a9565b611ae4600082611851565b6001600360008573ffffffffffffffffffffffffffffffffffffffff1673ffffffffffffffffffffffffffffffffffffffff1681526020019081526020016000206000828254611b34919061330e565b925050819055506001600360008473ffffffffffffffffffffffffffffffffffffffff1673ffffffffffffffffffffffffffffffffffffffff1681526020019081526020016000206000828254611b8b919061322d565b92505081905550816002600083815260200190815260200160002060006101000a81548173ffffffffffffffffffffffffffffffffffffffff021916908373ffffffffffffffffffffffffffffffffffffffff160217905550808273ffffffffffffffffffffffffffffffffffffffff168473ffffffffffffffffffffffffffffffffffffffff167fddf252ad1be2c89b69c2b068fc378daa952ba7f163c4a11628f55a4df523b3ef60405160405180910390a4611c4a8383836120ae565b505050565b6000600660009054906101000a900473ffffffffffffffffffffffffffffffffffffffff16905081600660006101000a81548173ffffffffffffffffffffffffffffffffffffffff021916908373ffffffffffffffffffffffffffffffffffffffff1602179055508173ffffffffffffffffffffffffffffffffffffffff168173ffffffffffffffffffffffffffffffffffffffff167f8be0079c531659141344cd1fd0a4f28419497f9722a3daafe3b4186f6b6457e060405160405180910390a35050565b611d2f8282604051806020016040528060008152506120b3565b5050565b8173ffffffffffffffffffffffffffffffffffffffff168373ffffffffffffffffffffffffffffffffffffffff161415611da2576040517f08c379a0000000000000000000000000000000000000000000000000000000008152600401611d9990612f99565b60405180910390fd5b80600560008573ffffffffffffffffffffffffffffffffffffffff1673ffffffffffffffffffffffffffffffffffffffff16815260200190815260200160002060008473ffffffffffffffffffffffffffffffffffffffff1673ffffffffffffffffffffffffffffffffffffffff16815260200190815260200160002060006101000a81548160ff0219169083151502179055508173ffffffffffffffffffffffffffffffffffffffff168373ffffffffffffffffffffffffffffffffffffffff167f17307eab39ab6107e8899845ad3d59bd9653f200f220920489ca2b5937696c3183604051611e939190612e5c565b60405180910390a3505050565b611eab8484846119e8565b611eb78484848461210e565b611ef6576040517f08c379a0000000000000000000000000000000000000000000000000000000008152600401611eed90612e99565b60405180910390fd5b50505050565b60606000821415611f44576040518060400160405280600181526020017f300000000000000000000000000000000000000000000000000000000000000081525090506120a4565b600082905060005b60008214611f76578080611f5f9061346d565b915050600a82611f6f9190613283565b9150611f4c565b60008167ffffffffffffffff811115611fb8577f4e487b7100000000000000000000000000000000000000000000000000000000600052604160045260246000fd5b6040519080825280601f01601f191660200182016040528015611fea5781602001600182028036833780820191505090505b5090505b6000851461209d57600182612003919061330e565b9150600a8561201291906134b6565b603061201e919061322d565b60f81b81838151811061205a577f4e487b7100000000000000000000000000000000000000000000000000000000600052603260045260246000fd5b60200101907effffffffffffffffffffffffffffffffffffffffffffffffffffffffffffff1916908160001a905350600a856120969190613283565b9450611fee565b8093505050505b919050565b505050565b505050565b6120bd83836122a5565b6120ca600084848461210e565b612109576040517f08c379a000000000000000000000000000000000000000000000000000000000815260040161210090612e99565b60405180910390fd5b505050565b600061212f8473ffffffffffffffffffffffffffffffffffffffff1661247f565b15612298578373ffffffffffffffffffffffffffffffffffffffff1663150b7a02612158611849565b8786866040518563ffffffff1660e01b815260040161217a9493929190612e10565b602060405180830381600087803b15801561219457600080fd5b505af19250505080156121c557506040513d601f19601f820116820180604052508101906121c29190612859565b60015b612248573d80600081146121f5576040519150601f19603f3d011682016040523d82523d6000602084013e6121fa565b606091505b50600081511415612240576040517f08c379a000000000000000000000000000000000000000000000000000000000815260040161223790612e99565b60405180910390fd5b805181602001fd5b63150b7a0260e01b7bffffffffffffffffffffffffffffffffffffffffffffffffffffffff1916817bffffffffffffffffffffffffffffffffffffffffffffffffffffffff19161491505061229d565b600190505b949350505050565b600073ffffffffffffffffffffffffffffffffffffffff168273ffffffffffffffffffffffffffffffffffffffff161415612315576040517f08c379a000000000000000000000000000000000000000000000000000000000815260040161230c90613039565b60405180910390fd5b61231e816117dd565b1561235e576040517f08c379a000000000000000000000000000000000000000000000000000000000815260040161235590612f39565b60405180910390fd5b61236a600083836120a9565b6001600360008473ffffffffffffffffffffffffffffffffffffffff1673ffffffffffffffffffffffffffffffffffffffff16815260200190815260200160002060008282546123ba919061322d565b92505081905550816002600083815260200190815260200160002060006101000a81548173ffffffffffffffffffffffffffffffffffffffff021916908373ffffffffffffffffffffffffffffffffffffffff160217905550808273ffffffffffffffffffffffffffffffffffffffff16600073ffffffffffffffffffffffffffffffffffffffff167fddf252ad1be2c89b69c2b068fc378daa952ba7f163c4a11628f55a4df523b3ef60405160405180910390a461247b600083836120ae565b5050565b6000808273ffffffffffffffffffffffffffffffffffffffff163b119050919050565b8280546124ae9061340a565b90600052602060002090601f0160209004810192826124d05760008555612517565b82601f106124e957803560ff1916838001178555612517565b82800160010185558215612517579182015b828111156125165782358255916020019190600101906124fb565b5b5090506125249190612528565b5090565b5b80821115612541576000816000905550600101612529565b5090565b600061255861255384613199565b613174565b90508281526020810184848401111561257057600080fd5b61257b8482856133c8565b509392505050565b60008135905061259281613b54565b92915050565b6000813590506125a781613b6b565b92915050565b6000813590506125bc81613b82565b92915050565b6000815190506125d181613b82565b92915050565b600082601f8301126125e857600080fd5b81356125f8848260208601612545565b91505092915050565b60008083601f84011261261357600080fd5b8235905067ffffffffffffffff81111561262c57600080fd5b60208301915083600182028301111561264457600080fd5b9250929050565b60008135905061265a81613b99565b92915050565b60006020828403121561267257600080fd5b600061268084828501612583565b91505092915050565b6000806040838503121561269c57600080fd5b60006126aa85828601612583565b92505060206126bb85828601612583565b9150509250929050565b6000806000606084860312156126da57600080fd5b60006126e886828701612583565b93505060206126f986828701612583565b925050604061270a8682870161264b565b9150509250925092565b6000806000806080858703121561272a57600080fd5b600061273887828801612583565b945050602061274987828801612583565b935050604061275a8782880161264b565b925050606085013567ffffffffffffffff81111561277757600080fd5b612783878288016125d7565b91505092959194509250565b600080604083850312156127a257600080fd5b60006127b085828601612583565b92505060206127c185828601612598565b9150509250929050565b600080604083850312156127de57600080fd5b60006127ec85828601612583565b92505060206127fd8582860161264b565b9150509250929050565b60006020828403121561281957600080fd5b600061282784828501612598565b91505092915050565b60006020828403121561284257600080fd5b6000612850848285016125ad565b91505092915050565b60006020828403121561286b57600080fd5b6000612879848285016125c2565b91505092915050565b6000806020838503121561289557600080fd5b600083013567ffffffffffffffff8111156128af57600080fd5b6128bb85828601612601565b92509250509250929050565b6000602082840312156128d957600080fd5b60006128e78482850161264b565b91505092915050565b6128f981613354565b82525050565b61290881613342565b82525050565b61291781613366565b82525050565b6000612928826131df565b61293281856131f5565b93506129428185602086016133d7565b61294b816135a3565b840191505092915050565b6000612961826131ea565b61296b8185613211565b935061297b8185602086016133d7565b612984816135a3565b840191505092915050565b600061299a826131ea565b6129a48185613222565b93506129b48185602086016133d7565b80840191505092915050565b600081546129cd8161340a565b6129d78186613222565b945060018216600081146129f25760018114612a0357612a36565b60ff19831686528186019350612a36565b612a0c856131ca565b60005b83811015612a2e57815481890152600182019150602081019050612a0f565b838801955050505b50505092915050565b6000612a4c603283613211565b9150612a57826135b4565b604082019050919050565b6000612a6f601f83613211565b9150612a7a82613603565b602082019050919050565b6000612a92602683613211565b9150612a9d8261362c565b604082019050919050565b6000612ab5602583613211565b9150612ac08261367b565b604082019050919050565b6000612ad8601383613211565b9150612ae3826136ca565b602082019050919050565b6000612afb601c83613211565b9150612b06826136f3565b602082019050919050565b6000612b1e602e83613211565b9150612b298261371c565b604082019050919050565b6000612b41602483613211565b9150612b4c8261376b565b604082019050919050565b6000612b64601983613211565b9150612b6f826137ba565b602082019050919050565b6000612b87602c83613211565b9150612b92826137e3565b604082019050919050565b6000612baa603883613211565b9150612bb582613832565b604082019050919050565b6000612bcd602a83613211565b9150612bd882613881565b604082019050919050565b6000612bf0602983613211565b9150612bfb826138d0565b604082019050919050565b6000612c13602083613211565b9150612c1e8261391f565b602082019050919050565b6000612c36601783613211565b9150612c4182613948565b602082019050919050565b6000612c59602c83613211565b9150612c6482613971565b604082019050919050565b6000612c7c600583613222565b9150612c87826139c0565b600582019050919050565b6000612c9f602083613211565b9150612caa826139e9565b602082019050919050565b6000612cc2602383613211565b9150612ccd82613a12565b604082019050919050565b6000612ce5601783613211565b9150612cf082613a61565b602082019050919050565b6000612d08602183613211565b9150612d1382613a8a565b604082019050919050565b6000612d2b600083613206565b9150612d3682613ad9565b600082019050919050565b6000612d4e603183613211565b9150612d5982613adc565b604082019050919050565b6000612d71600883613211565b9150612d7c82613b2b565b602082019050919050565b612d90816133be565b82525050565b6000612da282856129c0565b9150612dae828461298f565b9150612db982612c6f565b91508190509392505050565b6000612dd082612d1e565b9150819050919050565b6000602082019050612def60008301846128ff565b92915050565b6000602082019050612e0a60008301846128f0565b92915050565b6000608082019050612e2560008301876128ff565b612e3260208301866128ff565b612e3f6040830185612d87565b8181036060830152612e51818461291d565b905095945050505050565b6000602082019050612e71600083018461290e565b92915050565b60006020820190508181036000830152612e918184612956565b905092915050565b60006020820190508181036000830152612eb281612a3f565b9050919050565b60006020820190508181036000830152612ed281612a62565b9050919050565b60006020820190508181036000830152612ef281612a85565b9050919050565b60006020820190508181036000830152612f1281612aa8565b9050919050565b60006020820190508181036000830152612f3281612acb565b9050919050565b60006020820190508181036000830152612f5281612aee565b9050919050565b60006020820190508181036000830152612f7281612b11565b9050919050565b60006020820190508181036000830152612f9281612b34565b9050919050565b60006020820190508181036000830152612fb281612b57565b9050919050565b60006020820190508181036000830152612fd281612b7a565b9050919050565b60006020820190508181036000830152612ff281612b9d565b9050919050565b6000602082019050818103600083015261301281612bc0565b9050919050565b6000602082019050818103600083015261303281612be3565b9050919050565b6000602082019050818103600083015261305281612c06565b9050919050565b6000602082019050818103600083015261307281612c29565b9050919050565b6000602082019050818103600083015261309281612c4c565b9050919050565b600060208201905081810360008301526130b281612c92565b9050919050565b600060208201905081810360008301526130d281612cb5565b9050919050565b600060208201905081810360008301526130f281612cd8565b9050919050565b6000602082019050818103600083015261311281612cfb565b9050919050565b6000602082019050818103600083015261313281612d41565b9050919050565b6000602082019050818103600083015261315281612d64565b9050919050565b600060208201905061316e6000830184612d87565b92915050565b600061317e61318f565b905061318a828261343c565b919050565b6000604051905090565b600067ffffffffffffffff8211156131b4576131b3613574565b5b6131bd826135a3565b9050602081019050919050565b60008190508160005260206000209050919050565b600081519050919050565b600081519050919050565b600082825260208201905092915050565b600081905092915050565b600082825260208201905092915050565b600081905092915050565b6000613238826133be565b9150613243836133be565b9250827fffffffffffffffffffffffffffffffffffffffffffffffffffffffffffffffff03821115613278576132776134e7565b5b828201905092915050565b600061328e826133be565b9150613299836133be565b9250826132a9576132a8613516565b5b828204905092915050565b60006132bf826133be565b91506132ca836133be565b9250817fffffffffffffffffffffffffffffffffffffffffffffffffffffffffffffffff0483118215151615613303576133026134e7565b5b828202905092915050565b6000613319826133be565b9150613324836133be565b925082821015613337576133366134e7565b5b828203905092915050565b600061334d8261339e565b9050919050565b600061335f8261339e565b9050919050565b60008115159050919050565b60007fffffffff0000000000000000000000000000000000000000000000000000000082169050919050565b600073ffffffffffffffffffffffffffffffffffffffff82169050919050565b6000819050919050565b82818337600083830152505050565b60005b838110156133f55780820151818401526020810190506133da565b83811115613404576000848401525b50505050565b6000600282049050600182168061342257607f821691505b6020821081141561343657613435613545565b5b50919050565b613445826135a3565b810181811067ffffffffffffffff8211171561346457613463613574565b5b80604052505050565b6000613478826133be565b91507fffffffffffffffffffffffffffffffffffffffffffffffffffffffffffffffff8214156134ab576134aa6134e7565b5b600182019050919050565b60006134c1826133be565b91506134cc836133be565b9250826134dc576134db613516565b5b828206905092915050565b7f4e487b7100000000000000000000000000000000000000000000000000000000600052601160045260246000fd5b7f4e487b7100000000000000000000000000000000000000000000000000000000600052601260045260246000fd5b7f4e487b7100000000000000000000000000000000000000000000000000000000600052602260045260246000fd5b7f4e487b7100000000000000000000000000000000000000000000000000000000600052604160045260246000fd5b6000601f19601f8301169050919050565b7f4552433732313a207472616e7366657220746f206e6f6e20455243373231526560008201527f63656976657220696d706c656d656e7465720000000000000000000000000000602082015250565b7f4e6f7420616c6c6f77656420746f206d696e74206d6f7265207468616e203100600082015250565b7f4f776e61626c653a206e6577206f776e657220697320746865207a65726f206160008201527f6464726573730000000000000000000000000000000000000000000000000000602082015250565b7f4552433732313a207472616e736665722066726f6d20696e636f72726563742060008201527f6f776e6572000000000000000000000000000000000000000000000000000000602082015250565b7f546f6b656e20646f65736e6f7420657869737400000000000000000000000000600082015250565b7f4552433732313a20746f6b656e20616c7265616479206d696e74656400000000600082015250565b7f596f7520617265206e6f742077686974656c697374656420666f72204d696e7460008201527f696e672c204675636b206f66662e000000000000000000000000000000000000602082015250565b7f4552433732313a207472616e7366657220746f20746865207a65726f2061646460008201527f7265737300000000000000000000000000000000000000000000000000000000602082015250565b7f4552433732313a20617070726f766520746f2063616c6c657200000000000000600082015250565b7f4552433732313a206f70657261746f7220717565727920666f72206e6f6e657860008201527f697374656e7420746f6b656e0000000000000000000000000000000000000000602082015250565b7f4552433732313a20617070726f76652063616c6c6572206973206e6f74206f7760008201527f6e6572206e6f7220617070726f76656420666f7220616c6c0000000000000000602082015250565b7f4552433732313a2062616c616e636520717565727920666f7220746865207a6560008201527f726f206164647265737300000000000000000000000000000000000000000000602082015250565b7f4552433732313a206f776e657220717565727920666f72206e6f6e657869737460008201527f656e7420746f6b656e0000000000000000000000000000000000000000000000602082015250565b7f4552433732313a206d696e7420746f20746865207a65726f2061646472657373600082015250565b7f4d696e74696e67206e6f74207374617274656420796574000000000000000000600082015250565b7f4552433732313a20617070726f76656420717565727920666f72206e6f6e657860008201527f697374656e7420746f6b656e0000000000000000000000000000000000000000602082015250565b7f2e6a736f6e000000000000000000000000000000000000000000000000000000600082015250565b7f4f776e61626c653a2063616c6c6572206973206e6f7420746865206f776e6572600082015250565b7f4e6f7420656e6f75676820657468657265756d20666f72207472616e7361637460008201527f696f6e0000000000000000000000000000000000000000000000000000000000602082015250565b7f43616e74207769746864726177207468652066756e6473000000000000000000600082015250565b7f4552433732313a20617070726f76616c20746f2063757272656e74206f776e6560008201527f7200000000000000000000000000000000000000000000000000000000000000602082015250565b50565b7f4552433732313a207472616e736665722063616c6c6572206973206e6f74206f60008201527f776e6572206e6f7220617070726f766564000000000000000000000000000000602082015250565b7f536f6c64206f7574000000000000000000000000000000000000000000000000600082015250565b613b5d81613342565b8114613b6857600080fd5b50565b613b7481613366565b8114613b7f57600080fd5b50565b613b8b81613372565b8114613b9657600080fd5b50565b613ba2816133be565b8114613bad57600080fd5b5056fea26469706673582212203676a804cb3f844cccade03b4716bf8a76f8dc721fa44719ccc35df48e5a303064736f6c63430008040033",
    "linkReferences": {},
    "deployedLinkReferences": {}
}